:10011600759850758920758780758DFA758BFAD21A
:020126008E2227
:10000300120116E580C454F0FF1200F000580000FE
:100013003410003A2000D93000444000A95000C1F8
:1000230060004E800062900079A00091C000000043
:1000330006C280D2818004D280C281D282D28380E0
:10004300C2D280D281C282D28380B8D280D281D2FE
:1000530082C28380AEC280C281C282C28380A4D2A4
:1000630080D281D282D283E580C454F0FFF59930E7
:1000730099FDC299808DD280D281D282D283E580CC
:10008300C454F0FFF5993099FDC299020006D2805D
:10009300D281D282D283E580C454F0FFF59930999E
:1000A300FDC299020006D280D281D282D283E5803A
:1000B300C454F0FFF5993099FDC299020006D2802D
:1000C300D281D282D283E580C454F0FFF59930996E
:1000D300FDC299020006D280D281D282D283E5800A
:0D00E300C454F0F5993099FDC29902000651
:03000000020128D2
:0C012800787FE4F6D8FD75810702000323
:1000F000D083D082F8E4937012740193700DA3A39F
:1001000093F8740193F5828883E4737402936860B2
:06011000EFA3A3A380DFB2
:00000001FF
