:0300000002000EED
:0C000E00787FE4F6D8FD758111020055E2
:060003000110550111552A
:10009A0012018B1201AEE51014601514601D146074
:1000AA0026240370F1E511600280141201D880E65B
:1000BA00E511600280091201ED80DBE511600C1286
:1000CA0001BE12013380CFE51160051201DF80C63F
:0500DA001201E680C1E7
:1001AE00758921D2AF758C3C758AB0D2A9D28C22BA
:03000B0002010BE4
:10010B00C0E0C0F0C083C082C0D075D008758C3CF5
:10011B00758AB01200DF8F1012019D8F11D0D0D0D5
:08012B0082D083D0F0D0E03255
:10018B00759850758921758780758DFA758BFAD2A4
:02019B008E22B2
:0D01BE00E590C43354E0F5993099FDC299E5
:0101CB002211
:10017600C298AF99EF3395E0FEEF64904E70037F1F
:0401860001227F00D3
:01018A002252
:10013300E590C43354E024E0601624E0600B24C04F
:100143007014D2A2C2A1C2A022C2A2D2A1C2A02272
:07015300C2A2C2A1D2A0224A
:0701D800D2A3C2A4C2A522BC
:0701DF00C2A3D2A4C2A522B5
:0701E600C2A3C2A4C2A522BE
:0701ED00C2A3C2A4D2A522A7
:1000DF00AF80EF75F004A445F0601512015AEF6080
:1000EF00037F00221201CCEF60037F01227F0222E7
:0C00FF001201CCEF60037F01227F03227E
:10019D00AF90EF75F020A445F060037F01227F0042
:0101AD00222F
:10015A00E4FE308102FF22D3EE64809483400AEEEB
:0B016A00648094A850037F01227F00F6
:010175002267
:0C01CC00120176EF60037F01227F002209
:10001A0002009AE493A3F8E493A34003F68001F262
:10002A0008DFF48029E493A3F85407240CC8C333E7
:10003A00C4540F4420C8834004F456800146F6DFB6
:10004A00E4800B0102040810204080900003E47E43
:10005A00019360BCA3FF543F30E509541FFEE493AB
:10006A00A360010ECF54C025E060A840B8E493A372
:10007A00FAE493A3F8E493A3C8C582C8CAC583CA9D
:10008A00F0A3C8C582C8CAC583CADFE9DEE780BE55
:0100090000F6
:00000001FF
